{
  "_format": "hh-sol-artifact-1",
  "contractName": "DNToken",
  "sourceName": "contracts/Token/DNToken.sol",
  "abi": [
    {
      "inputs": [
        {
          "internalType": "address",
          "name": "initialHolder",
          "type": "address"
        },
        {
          "internalType": "string",
          "name": "_name",
          "type": "string"
        },
        {
          "internalType": "string",
          "name": "_symbol",
          "type": "string"
        },
        {
          "internalType": "uint8",
          "name": "_decimals",
          "type": "uint8"
        },
        {
          "internalType": "uint256",
          "name": "_initialBalance",
          "type": "uint256"
        }
      ],
      "stateMutability": "nonpayable",
      "type": "constructor"
    },
    {
      "anonymous": false,
      "inputs": [
        {
          "indexed": true,
          "internalType": "address",
          "name": "owner",
          "type": "address"
        },
        {
          "indexed": true,
          "internalType": "address",
          "name": "spender",
          "type": "address"
        },
        {
          "indexed": false,
          "internalType": "uint256",
          "name": "value",
          "type": "uint256"
        }
      ],
      "name": "Approval",
      "type": "event"
    },
    {
      "anonymous": false,
      "inputs": [
        {
          "indexed": true,
          "internalType": "address",
          "name": "authorizer",
          "type": "address"
        },
        {
          "indexed": true,
          "internalType": "bytes32",
          "name": "nonce",
          "type": "bytes32"
        }
      ],
      "name": "AuthorizationUsed",
      "type": "event"
    },
    {
      "anonymous": false,
      "inputs": [
        {
          "indexed": true,
          "internalType": "address",
          "name": "from",
          "type": "address"
        },
        {
          "indexed": true,
          "internalType": "address",
          "name": "to",
          "type": "address"
        },
        {
          "indexed": false,
          "internalType": "uint256",
          "name": "value",
          "type": "uint256"
        }
      ],
      "name": "Transfer",
      "type": "event"
    },
    {
      "inputs": [],
      "name": "EIP712DOMAIN_HASH",
      "outputs": [
        {
          "internalType": "bytes32",
          "name": "",
          "type": "bytes32"
        }
      ],
      "stateMutability": "view",
      "type": "function"
    },
    {
      "inputs": [],
      "name": "NAME_HASH",
      "outputs": [
        {
          "internalType": "bytes32",
          "name": "",
          "type": "bytes32"
        }
      ],
      "stateMutability": "view",
      "type": "function"
    },
    {
      "inputs": [],
      "name": "PERMIT_TYPEHASH",
      "outputs": [
        {
          "internalType": "bytes32",
          "name": "",
          "type": "bytes32"
        }
      ],
      "stateMutability": "view",
      "type": "function"
    },
    {
      "inputs": [],
      "name": "TRANSFER_WITH_AUTHORIZATION_TYPEHASH",
      "outputs": [
        {
          "internalType": "bytes32",
          "name": "",
          "type": "bytes32"
        }
      ],
      "stateMutability": "view",
      "type": "function"
    },
    {
      "inputs": [],
      "name": "VERSION_HASH",
      "outputs": [
        {
          "internalType": "bytes32",
          "name": "",
          "type": "bytes32"
        }
      ],
      "stateMutability": "view",
      "type": "function"
    },
    {
      "inputs": [
        {
          "internalType": "address",
          "name": "",
          "type": "address"
        },
        {
          "internalType": "address",
          "name": "",
          "type": "address"
        }
      ],
      "name": "allowance",
      "outputs": [
        {
          "internalType": "uint256",
          "name": "",
          "type": "uint256"
        }
      ],
      "stateMutability": "view",
      "type": "function"
    },
    {
      "inputs": [
        {
          "internalType": "address",
          "name": "spender",
          "type": "address"
        },
        {
          "internalType": "uint256",
          "name": "value",
          "type": "uint256"
        }
      ],
      "name": "approve",
      "outputs": [
        {
          "internalType": "bool",
          "name": "",
          "type": "bool"
        }
      ],
      "stateMutability": "nonpayable",
      "type": "function"
    },
    {
      "inputs": [
        {
          "internalType": "address",
          "name": "",
          "type": "address"
        },
        {
          "internalType": "bytes32",
          "name": "",
          "type": "bytes32"
        }
      ],
      "name": "authorizationState",
      "outputs": [
        {
          "internalType": "bool",
          "name": "",
          "type": "bool"
        }
      ],
      "stateMutability": "view",
      "type": "function"
    },
    {
      "inputs": [
        {
          "internalType": "address",
          "name": "",
          "type": "address"
        }
      ],
      "name": "balanceOf",
      "outputs": [
        {
          "internalType": "uint256",
          "name": "",
          "type": "uint256"
        }
      ],
      "stateMutability": "view",
      "type": "function"
    },
    {
      "inputs": [
        {
          "internalType": "uint256",
          "name": "value",
          "type": "uint256"
        }
      ],
      "name": "burn",
      "outputs": [
        {
          "internalType": "bool",
          "name": "",
          "type": "bool"
        }
      ],
      "stateMutability": "nonpayable",
      "type": "function"
    },
    {
      "inputs": [],
      "name": "decimals",
      "outputs": [
        {
          "internalType": "uint8",
          "name": "",
          "type": "uint8"
        }
      ],
      "stateMutability": "view",
      "type": "function"
    },
    {
      "inputs": [],
      "name": "getChainId",
      "outputs": [
        {
          "internalType": "uint256",
          "name": "chainId",
          "type": "uint256"
        }
      ],
      "stateMutability": "pure",
      "type": "function"
    },
    {
      "inputs": [],
      "name": "initialBalance",
      "outputs": [
        {
          "internalType": "uint256",
          "name": "",
          "type": "uint256"
        }
      ],
      "stateMutability": "view",
      "type": "function"
    },
    {
      "inputs": [],
      "name": "name",
      "outputs": [
        {
          "internalType": "string",
          "name": "",
          "type": "string"
        }
      ],
      "stateMutability": "view",
      "type": "function"
    },
    {
      "inputs": [
        {
          "internalType": "address",
          "name": "",
          "type": "address"
        }
      ],
      "name": "nonces",
      "outputs": [
        {
          "internalType": "uint256",
          "name": "",
          "type": "uint256"
        }
      ],
      "stateMutability": "view",
      "type": "function"
    },
    {
      "inputs": [
        {
          "internalType": "address",
          "name": "owner",
          "type": "address"
        },
        {
          "internalType": "address",
          "name": "spender",
          "type": "address"
        },
        {
          "internalType": "uint256",
          "name": "value",
          "type": "uint256"
        },
        {
          "internalType": "uint256",
          "name": "deadline",
          "type": "uint256"
        },
        {
          "internalType": "uint8",
          "name": "v",
          "type": "uint8"
        },
        {
          "internalType": "bytes32",
          "name": "r",
          "type": "bytes32"
        },
        {
          "internalType": "bytes32",
          "name": "s",
          "type": "bytes32"
        }
      ],
      "name": "permit",
      "outputs": [],
      "stateMutability": "nonpayable",
      "type": "function"
    },
    {
      "inputs": [],
      "name": "symbol",
      "outputs": [
        {
          "internalType": "string",
          "name": "",
          "type": "string"
        }
      ],
      "stateMutability": "view",
      "type": "function"
    },
    {
      "inputs": [],
      "name": "totalSupply",
      "outputs": [
        {
          "internalType": "uint256",
          "name": "",
          "type": "uint256"
        }
      ],
      "stateMutability": "view",
      "type": "function"
    },
    {
      "inputs": [
        {
          "internalType": "address",
          "name": "to",
          "type": "address"
        },
        {
          "internalType": "uint256",
          "name": "value",
          "type": "uint256"
        }
      ],
      "name": "transfer",
      "outputs": [
        {
          "internalType": "bool",
          "name": "",
          "type": "bool"
        }
      ],
      "stateMutability": "nonpayable",
      "type": "function"
    },
    {
      "inputs": [
        {
          "internalType": "address",
          "name": "from",
          "type": "address"
        },
        {
          "internalType": "address",
          "name": "to",
          "type": "address"
        },
        {
          "internalType": "uint256",
          "name": "value",
          "type": "uint256"
        }
      ],
      "name": "transferFrom",
      "outputs": [
        {
          "internalType": "bool",
          "name": "",
          "type": "bool"
        }
      ],
      "stateMutability": "nonpayable",
      "type": "function"
    },
    {
      "inputs": [
        {
          "internalType": "address",
          "name": "from",
          "type": "address"
        },
        {
          "internalType": "address",
          "name": "to",
          "type": "address"
        },
        {
          "internalType": "uint256",
          "name": "value",
          "type": "uint256"
        },
        {
          "internalType": "uint256",
          "name": "validAfter",
          "type": "uint256"
        },
        {
          "internalType": "uint256",
          "name": "validBefore",
          "type": "uint256"
        },
        {
          "internalType": "bytes32",
          "name": "nonce",
          "type": "bytes32"
        },
        {
          "internalType": "uint8",
          "name": "v",
          "type": "uint8"
        },
        {
          "internalType": "bytes32",
          "name": "r",
          "type": "bytes32"
        },
        {
          "internalType": "bytes32",
          "name": "s",
          "type": "bytes32"
        }
      ],
      "name": "transferWithAuthorization",
      "outputs": [],
      "stateMutability": "nonpayable",
      "type": "function"
    }
  ],
  "bytecode": "0x60806040523480156200001157600080fd5b506040516200176438038062001764833981810160405260a08110156200003757600080fd5b8151602083018051604051929492938301929190846401000000008211156200005f57600080fd5b9083019060208201858111156200007557600080fd5b82516401000000008111828201881017156200009057600080fd5b82525081516020918201929091019080838360005b83811015620000bf578181015183820152602001620000a5565b50505050905090810190601f168015620000ed5780820380516001836020036101000a031916815260200191505b50604052602001805160405193929190846401000000008211156200011157600080fd5b9083019060208201858111156200012757600080fd5b82516401000000008111828201881017156200014257600080fd5b82525081516020918201929091019080838360005b838110156200017157818101518382015260200162000157565b50505050905090810190601f1680156200019f5780820380516001836020036101000a031916815260200191505b50604090815260208281015192909101516000805460ff191660ff851617905585519294509250620001d79160019186019062000376565b508351620001ed90600290602087019062000376565b506003819055620001ff85826200020a565b505050505062000412565b6200022681600454620002b360201b62000bd41790919060201c565b6004556001600160a01b0382166000908152600560209081526040909120546200025b91839062000bd4620002b3821b17901c565b6001600160a01b03831660008181526005602090815260408083209490945583518581529351929391927fddf252ad1be2c89b69c2b068fc378daa952ba7f163c4a11628f55a4df523b3ef9281900390910190a35050565b6040805180820190915260118152704d4154483a4144445f4f564552464c4f5760781b602082015281830190838210156200036f5760405162461bcd60e51b81526004018080602001828103825283818151815260200191508051906020019080838360005b838110156200033357818101518382015260200162000319565b50505050905090810190601f168015620003615780820380516001836020036101000a031916815260200191505b509250505060405180910390fd5b5092915050565b828054600181600116156101000203166002900490600052602060002090601f016020900481019282601f10620003b957805160ff1916838001178555620003e9565b82800160010185558215620003e9579182015b82811115620003e9578251825591602001919060010190620003cc565b50620003f7929150620003fb565b5090565b5b80821115620003f75760008155600101620003fc565b61134280620004226000396000f3fe608060405234801561001057600080fd5b50600436106101775760003560e01c806370a08231116100d8578063a9059cbb1161008c578063dd62ed3e11610066578063dd62ed3e1461041d578063e3ee160e14610458578063e94a0102146104c457610177565b8063a9059cbb1461037c578063c473af33146103b5578063d505accf146103bd57610177565b806395d89b41116100bd57806395d89b41146103645780639e4e73181461036c578063a0cc6a681461037457610177565b806370a08231146102fe5780637ecebe001461033157610177565b806323b872dd1161012f578063313ce56711610114578063313ce567146102bb5780633408e470146102d957806342966c68146102e157610177565b806323b872dd1461027057806330adf81f146102b357610177565b8063095ea7b311610160578063095ea7b31461021357806318160ddd1461026057806318369a2a1461026857610177565b806304622c2e1461017c57806306fdde0314610196575b600080fd5b6101846104fd565b60408051918252519081900360200190f35b61019e610521565b6040805160208082528351818301528351919283929083019185019080838360005b838110156101d85781810151838201526020016101c0565b50505050905090810190601f1680156102055780820380516001836020036101000a031916815260200191505b509250505060405180910390f35b61024c6004803603604081101561022957600080fd5b5073ffffffffffffffffffffffffffffffffffffffff81351690602001356105ca565b604080519115158252519081900360200190f35b6101846105e0565b6101846105e6565b61024c6004803603606081101561028657600080fd5b5073ffffffffffffffffffffffffffffffffffffffff8135811691602081013590911690604001356105ec565b610184610696565b6102c36106ba565b6040805160ff9092168252519081900360200190f35b6101846106c3565b61024c600480360360208110156102f757600080fd5b50356106c7565b6101846004803603602081101561031457600080fd5b503573ffffffffffffffffffffffffffffffffffffffff166106db565b6101846004803603602081101561034757600080fd5b503573ffffffffffffffffffffffffffffffffffffffff166106ed565b61019e6106ff565b610184610777565b61018461079b565b61024c6004803603604081101561039257600080fd5b5073ffffffffffffffffffffffffffffffffffffffff81351690602001356107bf565b6101846107cc565b61041b600480360360e08110156103d357600080fd5b5073ffffffffffffffffffffffffffffffffffffffff813581169160208101359091169060408101359060608101359060ff6080820135169060a08101359060c001356107f0565b005b6101846004803603604081101561043357600080fd5b5073ffffffffffffffffffffffffffffffffffffffff81358116916020013516610917565b61041b600480360361012081101561046f57600080fd5b5073ffffffffffffffffffffffffffffffffffffffff813581169160208101359091169060408101359060608101359060808101359060a08101359060ff60c0820135169060e0810135906101000135610934565b61024c600480360360408110156104da57600080fd5b5073ffffffffffffffffffffffffffffffffffffffff8135169060200135610bb4565b7f7f7917bb6d209622ec582c10d3c2a64042fff542eea0539b3743b94376cf9a9c81565b600280546040805160206001841615610100027fffffffffffffffffffffffffffffffffffffffffffffffffffffffffffffffff01909316849004601f810184900484028201840190925281815292918301828280156105c25780601f10610597576101008083540402835291602001916105c2565b820191906000526020600020905b8154815290600101906020018083116105a557829003601f168201915b505050505081565b60006105d7338484610cb9565b50600192915050565b60045481565b60035481565b73ffffffffffffffffffffffffffffffffffffffff831660009081526006602090815260408083203384529091528120547fffffffffffffffffffffffffffffffffffffffffffffffffffffffffffffffff81146106805761064e8184610d28565b73ffffffffffffffffffffffffffffffffffffffff861660009081526006602090815260408083203384529091529020555b61068b858585610dc9565b506001949350505050565b7f6e71edae12b1b97f4d1f60370fef10105fa2faae0126114a169c64845d6126c981565b60005460ff1681565b4690565b60006106d33383610f2e565b506001919050565b60056020526000908152604090205481565b60076020526000908152604090205481565b60018054604080516020600284861615610100027fffffffffffffffffffffffffffffffffffffffffffffffffffffffffffffffff0190941693909304601f810184900484028201840190925281815292918301828280156105c25780601f10610597576101008083540402835291602001916105c2565b7fc89efdaa54c0f20c7adf612882df0950f5a951637e0307cdcb4c672f298b8bc681565b7f7c7c6cdb67a18743f49ec6fa9b35f50d52ed05cbed4cc592e13b44501c1a226781565b60006105d7338484610dc9565b7f8b73c3c69bb8fe3d512ecc4cf759cc79239f7b179b0ffacaa9a75d522b39400f81565b4284101561085f57604080517f08c379a000000000000000000000000000000000000000000000000000000000815260206004820152601860248201527f444e3a3a7065726d69743a20415554485f455850495245440000000000000000604482015290519081900360640190fd5b73ffffffffffffffffffffffffffffffffffffffff80881660008181526007602090815260409182902080546001810190915582517f6e71edae12b1b97f4d1f60370fef10105fa2faae0126114a169c64845d6126c98184015280840194909452938a1660608401526080830189905260a083019390935260c08083018890528151808403909101815260e0909201905280519101206109028882868686610fe6565b61090d888888610cb9565b5050505050505050565b600660209081526000928352604080842090915290825290205481565b85421161098c576040517f08c379a000000000000000000000000000000000000000000000000000000000815260040180806020018281038252603181526020018061128b6031913960400191505060405180910390fd5b8442106109e4576040517f08c379a000000000000000000000000000000000000000000000000000000000815260040180806020018281038252602b815260200180611260602b913960400191505060405180910390fd5b73ffffffffffffffffffffffffffffffffffffffff8916600090815260086020908152604080832087845290915290205460ff1615610a6e576040517f08c379a00000000000000000000000000000000000000000000000000000000081526004018080602001828103825260308152602001806112dd6030913960400191505060405180910390fd5b604080517f7c7c6cdb67a18743f49ec6fa9b35f50d52ed05cbed4cc592e13b44501c1a226760208083019190915273ffffffffffffffffffffffffffffffffffffffff808d16838501528b166060830152608082018a905260a0820189905260c0820188905260e0808301889052835180840390910181526101009092019092528051910120610b018a82868686610fe6565b73ffffffffffffffffffffffffffffffffffffffff8a166000908152600860209081526040808320888452909152902080547fffffffffffffffffffffffffffffffffffffffffffffffffffffffffffffff00166001179055610b658a8a8a610dc9565b604051859073ffffffffffffffffffffffffffffffffffffffff8c16907f98de503528ee59b575ef0c0a2576a82497bfc029a5685b209e9ec333479b10a590600090a350505050505050505050565b600860209081526000928352604080842090915290825290205460ff1681565b60408051808201909152601181527f4d4154483a4144445f4f564552464c4f5700000000000000000000000000000060208201528183019083821015610cb2576040517f08c379a00000000000000000000000000000000000000000000000000000000081526004018080602001828103825283818151815260200191508051906020019080838360005b83811015610c77578181015183820152602001610c5f565b50505050905090810190601f168015610ca45780820380516001836020036101000a031916815260200191505b509250505060405180910390fd5b5092915050565b73ffffffffffffffffffffffffffffffffffffffff808416600081815260066020908152604080832094871680845294825291829020859055815185815291517f8c5be1e5ebec7d5bd14f71427d1e84f3dd0314c0f7b2291e5b200ac8c7c3b9259281900390910190a3505050565b60408051808201909152601281527f4d4154483a5355425f554e444552464c4f57000000000000000000000000000060208201528183039083821115610cb2576040517f08c379a0000000000000000000000000000000000000000000000000000000008152602060048201818152835160248401528351909283926044909101919085019080838360008315610c77578181015183820152602001610c5f565b73ffffffffffffffffffffffffffffffffffffffff82163014801590610e04575073ffffffffffffffffffffffffffffffffffffffff821615155b610e59576040517f08c379a00000000000000000000000000000000000000000000000000000000081526004018080602001828103825260218152602001806112bc6021913960400191505060405180910390fd5b73ffffffffffffffffffffffffffffffffffffffff8316600090815260056020526040902054610e899082610d28565b73ffffffffffffffffffffffffffffffffffffffff8085166000908152600560205260408082209390935590841681522054610ec59082610bd4565b73ffffffffffffffffffffffffffffffffffffffff80841660008181526005602090815260409182902094909455805185815290519193928716927fddf252ad1be2c89b69c2b068fc378daa952ba7f163c4a11628f55a4df523b3ef92918290030190a3505050565b73ffffffffffffffffffffffffffffffffffffffff8216600090815260056020526040902054610f5e9082610d28565b73ffffffffffffffffffffffffffffffffffffffff8316600090815260056020526040902055600454610f919082610d28565b60045560408051828152905160009173ffffffffffffffffffffffffffffffffffffffff8516917fddf252ad1be2c89b69c2b068fc378daa952ba7f163c4a11628f55a4df523b3ef9181900360200190a35050565b60007f8b73c3c69bb8fe3d512ecc4cf759cc79239f7b179b0ffacaa9a75d522b39400f7f7f7917bb6d209622ec582c10d3c2a64042fff542eea0539b3743b94376cf9a9c7fc89efdaa54c0f20c7adf612882df0950f5a951637e0307cdcb4c672f298b8bc66110536106c3565b6040805160208082019690965280820194909452606084019290925260808301523060a0808401919091528151808403909101815260c0830182528051908401207f190100000000000000000000000000000000000000000000000000000000000060e084015260e283018190526101028084018a9052825180850390910181526101228401808452815191860191909120600091829052610142850180855281905260ff8a1661016286015261018285018990526101a285018890529251919550919391926001926101c28083019391927fffffffffffffffffffffffffffffffffffffffffffffffffffffffffffffffe08301929081900390910190855afa158015611165573d6000803e3d6000fd5b50506040517fffffffffffffffffffffffffffffffffffffffffffffffffffffffffffffffe0015191505073ffffffffffffffffffffffffffffffffffffffff8116158015906111e057508773ffffffffffffffffffffffffffffffffffffffff168173ffffffffffffffffffffffffffffffffffffffff16145b61090d576040517f08c379a000000000000000000000000000000000000000000000000000000000815260040180806020018281038252602a815260200180611236602a913960400191505060405180910390fdfe444e3a3a5f76616c69646174655369676e6564446174613a20494e56414c49445f5349474e4154555245444e3a3a7472616e7366657257697468417574686f72697a6174696f6e3a20415554485f45585049524544444e3a3a7472616e7366657257697468417574686f72697a6174696f6e3a20415554485f4e4f545f5945545f56414c4944444e3a3a5f7472616e736665723a204e4f545f56414c49445f5452414e53464552444e3a3a7472616e7366657257697468417574686f72697a6174696f6e3a20415554485f414c52454144595f55534544a2646970667358221220bfca08a32f50334197574f44aff2334ff43951a737affbf24c0732adb94620e064736f6c63430007030033",
  "linkReferences": {},
  "deployedLinkReferences": {}
}