{
  "_format": "hh-sol-artifact-1",
  "contractName": "DNVesting",
  "sourceName": "contracts/Token/TokenVesting.sol",
  "abi": [
    {
      "inputs": [
        {
          "internalType": "uint256",
          "name": "_totalVestedTokens",
          "type": "uint256"
        },
        {
          "internalType": "uint256",
          "name": "_startTime",
          "type": "uint256"
        },
        {
          "internalType": "uint256",
          "name": "_startToCliff",
          "type": "uint256"
        },
        {
          "internalType": "uint256",
          "name": "_duration",
          "type": "uint256"
        },
        {
          "internalType": "uint256",
          "name": "_initialPercentage",
          "type": "uint256"
        },
        {
          "internalType": "contract IERC20",
          "name": "_token",
          "type": "address"
        }
      ],
      "stateMutability": "nonpayable",
      "type": "constructor"
    },
    {
      "anonymous": false,
      "inputs": [
        {
          "indexed": true,
          "internalType": "address",
          "name": "from",
          "type": "address"
        },
        {
          "indexed": true,
          "internalType": "address",
          "name": "to",
          "type": "address"
        },
        {
          "indexed": false,
          "internalType": "uint256",
          "name": "value",
          "type": "uint256"
        }
      ],
      "name": "Assign",
      "type": "event"
    },
    {
      "anonymous": false,
      "inputs": [
        {
          "indexed": true,
          "internalType": "address",
          "name": "oldAddress",
          "type": "address"
        },
        {
          "indexed": true,
          "internalType": "address",
          "name": "newAddress",
          "type": "address"
        }
      ],
      "name": "ChangeAddress",
      "type": "event"
    },
    {
      "anonymous": false,
      "inputs": [
        {
          "indexed": true,
          "internalType": "address",
          "name": "from",
          "type": "address"
        },
        {
          "indexed": true,
          "internalType": "address",
          "name": "to",
          "type": "address"
        },
        {
          "indexed": false,
          "internalType": "uint256",
          "name": "value",
          "type": "uint256"
        }
      ],
      "name": "Grant",
      "type": "event"
    },
    {
      "anonymous": false,
      "inputs": [
        {
          "indexed": true,
          "internalType": "bytes32",
          "name": "role",
          "type": "bytes32"
        },
        {
          "indexed": true,
          "internalType": "bytes32",
          "name": "previousAdminRole",
          "type": "bytes32"
        },
        {
          "indexed": true,
          "internalType": "bytes32",
          "name": "newAdminRole",
          "type": "bytes32"
        }
      ],
      "name": "RoleAdminChanged",
      "type": "event"
    },
    {
      "anonymous": false,
      "inputs": [
        {
          "indexed": true,
          "internalType": "bytes32",
          "name": "role",
          "type": "bytes32"
        },
        {
          "indexed": true,
          "internalType": "address",
          "name": "account",
          "type": "address"
        },
        {
          "indexed": true,
          "internalType": "address",
          "name": "sender",
          "type": "address"
        }
      ],
      "name": "RoleGranted",
      "type": "event"
    },
    {
      "anonymous": false,
      "inputs": [
        {
          "indexed": true,
          "internalType": "bytes32",
          "name": "role",
          "type": "bytes32"
        },
        {
          "indexed": true,
          "internalType": "address",
          "name": "account",
          "type": "address"
        },
        {
          "indexed": true,
          "internalType": "address",
          "name": "sender",
          "type": "address"
        }
      ],
      "name": "RoleRevoked",
      "type": "event"
    },
    {
      "anonymous": false,
      "inputs": [
        {
          "indexed": true,
          "internalType": "address",
          "name": "recipient",
          "type": "address"
        },
        {
          "indexed": false,
          "internalType": "uint256",
          "name": "amount",
          "type": "uint256"
        }
      ],
      "name": "Withdraw",
      "type": "event"
    },
    {
      "inputs": [],
      "name": "DEFAULT_ADMIN_ROLE",
      "outputs": [
        {
          "internalType": "bytes32",
          "name": "",
          "type": "bytes32"
        }
      ],
      "stateMutability": "view",
      "type": "function"
    },
    {
      "inputs": [],
      "name": "DISTRIBUTOR_ROLE",
      "outputs": [
        {
          "internalType": "bytes32",
          "name": "",
          "type": "bytes32"
        }
      ],
      "stateMutability": "view",
      "type": "function"
    },
    {
      "inputs": [
        {
          "internalType": "address",
          "name": "recipient",
          "type": "address"
        },
        {
          "internalType": "uint256",
          "name": "amount",
          "type": "uint256"
        }
      ],
      "name": "assign",
      "outputs": [],
      "stateMutability": "nonpayable",
      "type": "function"
    },
    {
      "inputs": [
        {
          "internalType": "address",
          "name": "",
          "type": "address"
        }
      ],
      "name": "balances",
      "outputs": [
        {
          "internalType": "uint256",
          "name": "vestedTokens",
          "type": "uint256"
        },
        {
          "internalType": "uint256",
          "name": "withdrawed",
          "type": "uint256"
        }
      ],
      "stateMutability": "view",
      "type": "function"
    },
    {
      "inputs": [
        {
          "internalType": "address",
          "name": "newAddress",
          "type": "address"
        }
      ],
      "name": "changeAddress",
      "outputs": [],
      "stateMutability": "nonpayable",
      "type": "function"
    },
    {
      "inputs": [],
      "name": "cliffTime",
      "outputs": [
        {
          "internalType": "uint256",
          "name": "",
          "type": "uint256"
        }
      ],
      "stateMutability": "view",
      "type": "function"
    },
    {
      "inputs": [],
      "name": "duration",
      "outputs": [
        {
          "internalType": "uint256",
          "name": "",
          "type": "uint256"
        }
      ],
      "stateMutability": "view",
      "type": "function"
    },
    {
      "inputs": [
        {
          "internalType": "bytes32",
          "name": "role",
          "type": "bytes32"
        }
      ],
      "name": "getRoleAdmin",
      "outputs": [
        {
          "internalType": "bytes32",
          "name": "",
          "type": "bytes32"
        }
      ],
      "stateMutability": "view",
      "type": "function"
    },
    {
      "inputs": [
        {
          "internalType": "bytes32",
          "name": "role",
          "type": "bytes32"
        },
        {
          "internalType": "uint256",
          "name": "index",
          "type": "uint256"
        }
      ],
      "name": "getRoleMember",
      "outputs": [
        {
          "internalType": "address",
          "name": "",
          "type": "address"
        }
      ],
      "stateMutability": "view",
      "type": "function"
    },
    {
      "inputs": [
        {
          "internalType": "bytes32",
          "name": "role",
          "type": "bytes32"
        }
      ],
      "name": "getRoleMemberCount",
      "outputs": [
        {
          "internalType": "uint256",
          "name": "",
          "type": "uint256"
        }
      ],
      "stateMutability": "view",
      "type": "function"
    },
    {
      "inputs": [],
      "name": "getTimestamp",
      "outputs": [
        {
          "internalType": "uint256",
          "name": "",
          "type": "uint256"
        }
      ],
      "stateMutability": "view",
      "type": "function"
    },
    {
      "inputs": [
        {
          "internalType": "address",
          "name": "recipient",
          "type": "address"
        },
        {
          "internalType": "uint256",
          "name": "amount",
          "type": "uint256"
        }
      ],
      "name": "grant",
      "outputs": [],
      "stateMutability": "nonpayable",
      "type": "function"
    },
    {
      "inputs": [
        {
          "internalType": "bytes32",
          "name": "role",
          "type": "bytes32"
        },
        {
          "internalType": "address",
          "name": "account",
          "type": "address"
        }
      ],
      "name": "grantRole",
      "outputs": [],
      "stateMutability": "nonpayable",
      "type": "function"
    },
    {
      "inputs": [
        {
          "internalType": "bytes32",
          "name": "role",
          "type": "bytes32"
        },
        {
          "internalType": "address",
          "name": "account",
          "type": "address"
        }
      ],
      "name": "hasRole",
      "outputs": [
        {
          "internalType": "bool",
          "name": "",
          "type": "bool"
        }
      ],
      "stateMutability": "view",
      "type": "function"
    },
    {
      "inputs": [],
      "name": "initialAmount",
      "outputs": [
        {
          "internalType": "uint256",
          "name": "",
          "type": "uint256"
        }
      ],
      "stateMutability": "view",
      "type": "function"
    },
    {
      "inputs": [],
      "name": "initialPercentage",
      "outputs": [
        {
          "internalType": "uint256",
          "name": "",
          "type": "uint256"
        }
      ],
      "stateMutability": "view",
      "type": "function"
    },
    {
      "inputs": [
        {
          "internalType": "bytes32",
          "name": "role",
          "type": "bytes32"
        },
        {
          "internalType": "address",
          "name": "account",
          "type": "address"
        }
      ],
      "name": "renounceRole",
      "outputs": [],
      "stateMutability": "nonpayable",
      "type": "function"
    },
    {
      "inputs": [
        {
          "internalType": "bytes32",
          "name": "role",
          "type": "bytes32"
        },
        {
          "internalType": "address",
          "name": "account",
          "type": "address"
        }
      ],
      "name": "revokeRole",
      "outputs": [],
      "stateMutability": "nonpayable",
      "type": "function"
    },
    {
      "inputs": [],
      "name": "startTime",
      "outputs": [
        {
          "internalType": "uint256",
          "name": "",
          "type": "uint256"
        }
      ],
      "stateMutability": "view",
      "type": "function"
    },
    {
      "inputs": [],
      "name": "token",
      "outputs": [
        {
          "internalType": "contract IERC20",
          "name": "",
          "type": "address"
        }
      ],
      "stateMutability": "view",
      "type": "function"
    },
    {
      "inputs": [],
      "name": "tokenRate",
      "outputs": [
        {
          "internalType": "uint256",
          "name": "",
          "type": "uint256"
        }
      ],
      "stateMutability": "view",
      "type": "function"
    },
    {
      "inputs": [
        {
          "internalType": "uint256",
          "name": "timestamp",
          "type": "uint256"
        }
      ],
      "name": "totalTokensUnlockedAt",
      "outputs": [
        {
          "internalType": "uint256",
          "name": "",
          "type": "uint256"
        }
      ],
      "stateMutability": "view",
      "type": "function"
    },
    {
      "inputs": [],
      "name": "totalVestedTokens",
      "outputs": [
        {
          "internalType": "uint256",
          "name": "",
          "type": "uint256"
        }
      ],
      "stateMutability": "view",
      "type": "function"
    },
    {
      "inputs": [],
      "name": "withdraw",
      "outputs": [],
      "stateMutability": "nonpayable",
      "type": "function"
    },
    {
      "inputs": [
        {
          "internalType": "address",
          "name": "recipient",
          "type": "address"
        }
      ],
      "name": "withdrawableTokens",
      "outputs": [
        {
          "internalType": "uint256",
          "name": "",
          "type": "uint256"
        }
      ],
      "stateMutability": "view",
      "type": "function"
    },
    {
      "inputs": [
        {
          "internalType": "address",
          "name": "recipient",
          "type": "address"
        },
        {
          "internalType": "uint256",
          "name": "timestamp",
          "type": "uint256"
        }
      ],
      "name": "withdrawableTokensAt",
      "outputs": [
        {
          "internalType": "uint256",
          "name": "",
          "type": "uint256"
        }
      ],
      "stateMutability": "view",
      "type": "function"
    }
  ],
  "bytecode": "0x60806040523480156200001157600080fd5b506040516200259338038062002593833981810160405260c08110156200003757600080fd5b508051602082015160408301516060840151608085015160a0909501519394929391929091838310156200009d5760405162461bcd60e51b8152600401808060200182810382526030815260200180620025086030913960400191505060405180910390fd5b6064821115620000df5760405162461bcd60e51b815260040180806020018281038252603a81526020018062002559603a913960400191505060405180910390fd5b620000ec600033620001a6565b600980546001600160a01b0319166001600160a01b038316179055600286905560038590558385016004556006828155600584905530600090815260016020908152604090912088905590546200016b9160649162000157918a9190620001b6811b620014db17901c565b6200021d60201b6200154e1790919060201c565b60088190555062000196600554620001576008546002546200028660201b620015cf1790919060201c565b60075550620003df945050505050565b620001b28282620002e4565b5050565b600082620001c75750600062000217565b82820282848281620001d557fe5b0414620002145760405162461bcd60e51b8152600401808060200182810382526021815260200180620025386021913960400191505060405180910390fd5b90505b92915050565b600080821162000274576040805162461bcd60e51b815260206004820152601a60248201527f536166654d6174683a206469766973696f6e206279207a65726f000000000000604482015290519081900360640190fd5b8183816200027e57fe5b049392505050565b600082821115620002de576040805162461bcd60e51b815260206004820152601e60248201527f536166654d6174683a207375627472616374696f6e206f766572666c6f770000604482015290519081900360640190fd5b50900390565b60008281526020818152604090912062000309918390620016466200035d821b17901c565b15620001b2576200031962000374565b6001600160a01b0316816001600160a01b0316837f2f8788117e7eff1d82e926ec794901d17c78024a50270940304540a733656f0d60405160405180910390a45050565b600062000214836001600160a01b03841662000378565b3390565b6000620003868383620003c7565b620003be5750815460018181018455600084815260208082209093018490558454848252828601909352604090209190915562000217565b50600062000217565b60009081526001919091016020526040902054151590565b61211980620003ef6000396000f3fe608060405234801561001057600080fd5b50600436106101ad5760003560e01c806378e97925116100ee578063be76048811610097578063f0bd87cc11610071578063f0bd87cc146104d3578063fc0c546a146104db578063fc1ed437146104e3578063fe64d6ff146104eb576101ad565b8063be76048814610444578063ca15c8731461047d578063d547741f1461049a576101ad565b80639b4bf5fe116100c85780639b4bf5fe146103fb578063a217fddf14610434578063b798fd511461043c576101ad565b806378e979251461035a5780639010d07c1461036257806391d14854146103ae576101ad565b806327e235e31161015b57806336568abe1161013557806336568abe146102d85780633ccfd60b1461031157806351e09631146103195780636370920e14610321576101ad565b806327e235e3146102495780632f2ff15d1461029557806331711884146102d0576101ad565b80630fb5a6b41161018c5780630fb5a6b41461021c578063188ec35614610224578063248a9ca31461022c576101ad565b80626f6ad0146101b25780630d9e7fbe146101f75780630f1a644414610214575b600080fd5b6101e5600480360360208110156101c857600080fd5b503573ffffffffffffffffffffffffffffffffffffffff1661051e565b60408051918252519081900360200190f35b6101e56004803603602081101561020d57600080fd5b5035610539565b6101e56105b8565b6101e56105be565b6101e56105c4565b6101e56004803603602081101561024257600080fd5b50356105c8565b61027c6004803603602081101561025f57600080fd5b503573ffffffffffffffffffffffffffffffffffffffff166105dd565b6040805192835260208301919091528051918290030190f35b6102ce600480360360408110156102ab57600080fd5b508035906020013573ffffffffffffffffffffffffffffffffffffffff166105f6565b005b6101e561067c565b6102ce600480360360408110156102ee57600080fd5b508035906020013573ffffffffffffffffffffffffffffffffffffffff16610682565b6102ce610717565b6101e56109d1565b6102ce6004803603604081101561033757600080fd5b5073ffffffffffffffffffffffffffffffffffffffff81351690602001356109d7565b6101e5610d4c565b6103856004803603604081101561037857600080fd5b5080359060200135610d52565b6040805173ffffffffffffffffffffffffffffffffffffffff9092168252519081900360200190f35b6103e7600480360360408110156103c457600080fd5b508035906020013573ffffffffffffffffffffffffffffffffffffffff16610d73565b604080519115158252519081900360200190f35b6101e56004803603604081101561041157600080fd5b5073ffffffffffffffffffffffffffffffffffffffff8135169060200135610d8b565b6101e5610e95565b6101e5610e9a565b6102ce6004803603604081101561045a57600080fd5b5073ffffffffffffffffffffffffffffffffffffffff8135169060200135610ea0565b6101e56004803603602081101561049357600080fd5b5035611060565b6102ce600480360360408110156104b057600080fd5b508035906020013573ffffffffffffffffffffffffffffffffffffffff16611077565b6101e56110ea565b61038561110e565b6101e561112a565b6102ce6004803603602081101561050157600080fd5b503573ffffffffffffffffffffffffffffffffffffffff16611130565b60006105318261052c6105c4565b610d8b565b90505b919050565b600060035482101561054d57506000610534565b600554600354018211156105645750600254610534565b6004548210156105775750600854610534565b600061058e600354846115cf90919063ffffffff16565b90506105b16105a8600754836114db90919063ffffffff16565b60085490611668565b9392505050565b60045481565b60055481565b4290565b60009081526020819052604090206002015490565b6001602081905260009182526040909120805491015482565b600082815260208190526040902060020154610619906106146116dc565b610d73565b61066e576040517f08c379a000000000000000000000000000000000000000000000000000000000815260040180806020018281038252602f815260200180611dc5602f913960400191505060405180910390fd5b61067882826116e0565b5050565b60075481565b61068a6116dc565b73ffffffffffffffffffffffffffffffffffffffff168173ffffffffffffffffffffffffffffffffffffffff161461070d576040517f08c379a000000000000000000000000000000000000000000000000000000000815260040180806020018281038252602f8152602001806120b5602f913960400191505060405180910390fd5b6106788282611763565b600254600954604080517f70a08231000000000000000000000000000000000000000000000000000000008152306004820152905173ffffffffffffffffffffffffffffffffffffffff909216916370a0823191602480820192602092909190829003018186803b15801561078b57600080fd5b505afa15801561079f573d6000803e3d6000fd5b505050506040513d60208110156107b557600080fd5b5051101561080e576040517f08c379a000000000000000000000000000000000000000000000000000000000815260040180806020018281038252602b815260200180611df4602b913960400191505060405180910390fd5b6108186000611060565b1561086e576040517f08c379a00000000000000000000000000000000000000000000000000000000081526004018080602001828103825260328152602001806120836032913960400191505060405180910390fd5b30600090815260016020526040902054156108d4576040517f08c379a00000000000000000000000000000000000000000000000000000000081526004018080602001828103825260328152602001806120516032913960400191505060405180910390fd5b60006108e23361052c6105c4565b90506000811161093d576040517f08c379a0000000000000000000000000000000000000000000000000000000008152600401808060200182810382526033815260200180611e606033913960400191505060405180910390fd5b336000908152600160208190526040909120015461095b9082611668565b33600081815260016020819052604090912001919091556009546109989173ffffffffffffffffffffffffffffffffffffffff90911690836117e6565b60408051828152905133917f884edad9ce6fa2440d8a54cc123490eb96d2768479d49ff9c7366125a9424364919081900360200190a250565b60025481565b600254600954604080517f70a08231000000000000000000000000000000000000000000000000000000008152306004820152905173ffffffffffffffffffffffffffffffffffffffff909216916370a0823191602480820192602092909190829003018186803b158015610a4b57600080fd5b505afa158015610a5f573d6000803e3d6000fd5b505050506040513d6020811015610a7557600080fd5b50511015610ace576040517f08c379a000000000000000000000000000000000000000000000000000000000815260040180806020018281038252602b815260200180611df4602b913960400191505060405180910390fd5b610ad86000611060565b15610b2e576040517f08c379a00000000000000000000000000000000000000000000000000000000081526004018080602001828103825260328152602001806120836032913960400191505060405180910390fd5b3060009081526001602052604090205415610b94576040517f08c379a00000000000000000000000000000000000000000000000000000000081526004018080602001828103825260328152602001806120516032913960400191505060405180910390fd5b610bbe7ffbd454f36a7e1a388bd6fc3ab10d434aa4578f811acbbcf33afb1c697486313c33610d73565b610c13576040517f08c379a0000000000000000000000000000000000000000000000000000000008152600401808060200182810382526026815260200180611f816026913960400191505060405180910390fd5b610c3d7ffbd454f36a7e1a388bd6fc3ab10d434aa4578f811acbbcf33afb1c697486313c83610d73565b15610c93576040517f08c379a0000000000000000000000000000000000000000000000000000000008152600401808060200182810382526030815260200180611ec06030913960400191505060405180910390fd5b33600090815260016020526040902054610cad90826115cf565b336000908152600160205260408082209290925573ffffffffffffffffffffffffffffffffffffffff841681522054610ce69082611668565b73ffffffffffffffffffffffffffffffffffffffff83166000818152600160209081526040918290209390935580518481529051919233927fdc1e872d7927b949dd471e2dd9d43153685b5564c9a6aaf82246e27c0a9f2a289281900390910190a35050565b60035481565b6000828152602081905260408120610d6a9083611878565b90505b92915050565b6000828152602081905260408120610d6a9083611884565b6000610db77ffbd454f36a7e1a388bd6fc3ab10d434aa4578f811acbbcf33afb1c697486313c84610d73565b15610e0d576040517f08c379a0000000000000000000000000000000000000000000000000000000008152600401808060200182810382526041815260200180611e1f6041913960600191505060405180910390fd5b60025473ffffffffffffffffffffffffffffffffffffffff84166000908152600160205260408120549091610e5591610e4f90610e4987610539565b906114db565b9061154e565b73ffffffffffffffffffffffffffffffffffffffff851660009081526001602081905260409091200154909150610e8d9082906115cf565b949350505050565b600081565b60065481565b610eab600033610d73565b610f00576040517f08c379a0000000000000000000000000000000000000000000000000000000008152600401808060200182810382526022815260200180611ef06022913960400191505060405180910390fd5b610f2a7ffbd454f36a7e1a388bd6fc3ab10d434aa4578f811acbbcf33afb1c697486313c83610d73565b610f7f576040517f08c379a000000000000000000000000000000000000000000000000000000000815260040180806020018281038252602b815260200180611fa7602b913960400191505060405180910390fd5b30600090815260016020526040902054610f9990826115cf565b306000908152600160205260408082209290925573ffffffffffffffffffffffffffffffffffffffff841681522054610fd29082611668565b73ffffffffffffffffffffffffffffffffffffffff831660009081526001602052604080822092909255308152205461101057611010600033610682565b60408051828152905173ffffffffffffffffffffffffffffffffffffffff84169130917e7ae6a979e5d8177867f7c1ca4be1527487a2e43a444b55c3dfaee02c4235449181900360200190a35050565b6000818152602081905260408120610531906118a6565b600082815260208190526040902060020154611095906106146116dc565b61070d576040517f08c379a0000000000000000000000000000000000000000000000000000000008152600401808060200182810382526030815260200180611f516030913960400191505060405180910390fd5b7ffbd454f36a7e1a388bd6fc3ab10d434aa4578f811acbbcf33afb1c697486313c81565b60095473ffffffffffffffffffffffffffffffffffffffff1681565b60085481565b600254600954604080517f70a08231000000000000000000000000000000000000000000000000000000008152306004820152905173ffffffffffffffffffffffffffffffffffffffff909216916370a0823191602480820192602092909190829003018186803b1580156111a457600080fd5b505afa1580156111b8573d6000803e3d6000fd5b505050506040513d60208110156111ce57600080fd5b50511015611227576040517f08c379a000000000000000000000000000000000000000000000000000000000815260040180806020018281038252602b815260200180611df4602b913960400191505060405180910390fd5b6112316000611060565b15611287576040517f08c379a00000000000000000000000000000000000000000000000000000000081526004018080602001828103825260328152602001806120836032913960400191505060405180910390fd5b30600090815260016020526040902054156112ed576040517f08c379a00000000000000000000000000000000000000000000000000000000081526004018080602001828103825260328152602001806120516032913960400191505060405180910390fd5b73ffffffffffffffffffffffffffffffffffffffff811660009081526001602052604090205415611369576040517f08c379a000000000000000000000000000000000000000000000000000000000815260040180806020018281038252602d815260200180611e93602d913960400191505060405180910390fd5b73ffffffffffffffffffffffffffffffffffffffff811660009081526001602081905260409091200154156113e9576040517f08c379a0000000000000000000000000000000000000000000000000000000008152600401808060200182810382526034815260200180611ff36034913960400191505060405180910390fd5b6114137ffbd454f36a7e1a388bd6fc3ab10d434aa4578f811acbbcf33afb1c697486313c33610d73565b15611469576040517f08c379a000000000000000000000000000000000000000000000000000000000815260040180806020018281038252603f815260200180611f12603f913960400191505060405180910390fd5b336000818152600160208190526040808320805473ffffffffffffffffffffffffffffffffffffffff87168086528386209182558583559184018054919094015584845291839055519092917f8839b4e99cbac9b99de60313e9f1679f46d6837a692b8c052bf0bd6cacb19c7991a350565b6000826114ea57506000610d6d565b828202828482816114f757fe5b0414610d6a576040517f08c379a0000000000000000000000000000000000000000000000000000000008152600401808060200182810382526021815260200180611fd26021913960400191505060405180910390fd5b60008082116115be57604080517f08c379a000000000000000000000000000000000000000000000000000000000815260206004820152601a60248201527f536166654d6174683a206469766973696f6e206279207a65726f000000000000604482015290519081900360640190fd5b8183816115c757fe5b049392505050565b60008282111561164057604080517f08c379a000000000000000000000000000000000000000000000000000000000815260206004820152601e60248201527f536166654d6174683a207375627472616374696f6e206f766572666c6f770000604482015290519081900360640190fd5b50900390565b6000610d6a8373ffffffffffffffffffffffffffffffffffffffff84166118b1565b600082820183811015610d6a57604080517f08c379a000000000000000000000000000000000000000000000000000000000815260206004820152601b60248201527f536166654d6174683a206164646974696f6e206f766572666c6f770000000000604482015290519081900360640190fd5b3390565b60008281526020819052604090206116f89082611646565b15610678576117056116dc565b73ffffffffffffffffffffffffffffffffffffffff168173ffffffffffffffffffffffffffffffffffffffff16837f2f8788117e7eff1d82e926ec794901d17c78024a50270940304540a733656f0d60405160405180910390a45050565b600082815260208190526040902061177b90826118fb565b15610678576117886116dc565b73ffffffffffffffffffffffffffffffffffffffff168173ffffffffffffffffffffffffffffffffffffffff16837ff6391f5c32d9c69d2a47ea670b442974b53935d1edc7fd64eb21e047a839171b60405160405180910390a45050565b6040805173ffffffffffffffffffffffffffffffffffffffff8416602482015260448082018490528251808303909101815260649091019091526020810180517bffffffffffffffffffffffffffffffffffffffffffffffffffffffff167fa9059cbb0000000000000000000000000000000000000000000000000000000017905261187390849061191d565b505050565b6000610d6a83836119f5565b6000610d6a8373ffffffffffffffffffffffffffffffffffffffff8416611a73565b600061053182611a8b565b60006118bd8383611a73565b6118f357508154600181810184556000848152602080822090930184905584548482528286019093526040902091909155610d6d565b506000610d6d565b6000610d6a8373ffffffffffffffffffffffffffffffffffffffff8416611a8f565b606061197f826040518060400160405280602081526020017f5361666545524332303a206c6f772d6c6576656c2063616c6c206661696c65648152508573ffffffffffffffffffffffffffffffffffffffff16611b739092919063ffffffff16565b8051909150156118735780806020019051602081101561199e57600080fd5b5051611873576040517f08c379a000000000000000000000000000000000000000000000000000000000815260040180806020018281038252602a815260200180612027602a913960400191505060405180910390fd5b81546000908210611a51576040517f08c379a0000000000000000000000000000000000000000000000000000000008152600401808060200182810382526022815260200180611da36022913960400191505060405180910390fd5b826000018281548110611a6057fe5b9060005260206000200154905092915050565b60009081526001919091016020526040902054151590565b5490565b60008181526001830160205260408120548015611b695783547fffffffffffffffffffffffffffffffffffffffffffffffffffffffffffffffff8083019190810190600090879083908110611ae057fe5b9060005260206000200154905080876000018481548110611afd57fe5b600091825260208083209091019290925582815260018981019092526040902090840190558654879080611b2d57fe5b60019003818190600052602060002001600090559055866001016000878152602001908152602001600020600090556001945050505050610d6d565b6000915050610d6d565b6060610e8d848460008585611b8785611cde565b611bf257604080517f08c379a000000000000000000000000000000000000000000000000000000000815260206004820152601d60248201527f416464726573733a2063616c6c20746f206e6f6e2d636f6e7472616374000000604482015290519081900360640190fd5b600060608673ffffffffffffffffffffffffffffffffffffffff1685876040518082805190602001908083835b60208310611c5c57805182527fffffffffffffffffffffffffffffffffffffffffffffffffffffffffffffffe09092019160209182019101611c1f565b6001836020036101000a03801982511681845116808217855250505050505090500191505060006040518083038185875af1925050503d8060008114611cbe576040519150601f19603f3d011682016040523d82523d6000602084013e611cc3565b606091505b5091509150611cd3828286611ce4565b979650505050505050565b3b151590565b60608315611cf35750816105b1565b825115611d035782518084602001fd5b816040517f08c379a00000000000000000000000000000000000000000000000000000000081526004018080602001828103825283818151815260200191508051906020019080838360005b83811015611d67578181015183820152602001611d4f565b50505050905090810190601f168015611d945780820380516001836020036101000a031916815260200191505b509250505060405180910390fdfe456e756d657261626c655365743a20696e646578206f7574206f6620626f756e6473416363657373436f6e74726f6c3a2073656e646572206d75737420626520616e2061646d696e20746f206772616e74444e56657374696e673a3a6973496e697469616c697a6564204e4f545f454e4f5547485f42414c414e4345444e56657374696e673a3a776974686472617761626c65546f6b656e7341743a204449535452494255544f525f524f4c455f43414e4e4f545f5749544844524157444e56657374696e673a3a77697468647261773a204e4f545f454e4f554754485f544f4b454e535f544f5f5749544844524157444e56657374696e673a3a6368616e6765416464726573733a20414444524553535f4841535f42414c414e4345444e56657374696e673a3a6d6f76653a204449535452494255544f525f4e4f545f56414c49445f524543495049454e54444e56657374696e673a3a61737369676e3a204f4e4c595f41444d494e5f524f4c45444e56657374696e673a3a6368616e6765416464726573733a204449535452494255544f525f524f4c455f43414e4e4f545f4348414e474541444452455353416363657373436f6e74726f6c3a2073656e646572206d75737420626520616e2061646d696e20746f207265766f6b65444e56657374696e673a3a6d6f76653a204f4e4c595f4449535452494255544f525f524f4c45444e56657374696e673a3a61737369676e3a204f4e4c595f544f5f4449535452494255544f525f524f4c45536166654d6174683a206d756c7469706c69636174696f6e206f766572666c6f77444e56657374696e673a3a6368616e6765416464726573733a20414444524553535f414c52454144595f574954484452415745445361666545524332303a204552433230206f7065726174696f6e20646964206e6f742073756363656564444e56657374696e673a3a6973496e697469616c697a656420544f4b454e535f50454e44494e475f414c4c4f434154494f4e444e56657374696e673a3a6973496e697469616c697a65642044454641554c545f41444d494e5f524f4c455f455849535453416363657373436f6e74726f6c3a2063616e206f6e6c792072656e6f756e636520726f6c657320666f722073656c66a264697066735822122020adbdbe6ba58f6ab8dc3d9f5435f4f6649b7937966a6bafcb1799e06699f2db64736f6c63430007030033444e56657374696e673a3a636f6e7374727563746f723a204455524154494f4e5f4c4553535f5448414e5f434c494646536166654d6174683a206d756c7469706c69636174696f6e206f766572666c6f77444e56657374696e673a3a636f6e7374727563746f723a20494e495449414c50455243454e544147455f475245415445525f5448414e5f313030",
  "linkReferences": {},
  "deployedLinkReferences": {}
}