{
  "_format": "hh-sol-artifact-1",
  "contractName": "MerkleDrop",
  "sourceName": "contracts/Distributors/MerkleDrop.sol",
  "abi": [
    {
      "anonymous": false,
      "inputs": [
        {
          "indexed": false,
          "internalType": "uint256",
          "name": "index",
          "type": "uint256"
        },
        {
          "indexed": false,
          "internalType": "address",
          "name": "account",
          "type": "address"
        },
        {
          "indexed": false,
          "internalType": "address",
          "name": "recipient",
          "type": "address"
        },
        {
          "indexed": false,
          "internalType": "uint256",
          "name": "amount",
          "type": "uint256"
        }
      ],
      "name": "Claimed",
      "type": "event"
    },
    {
      "anonymous": false,
      "inputs": [
        {
          "indexed": true,
          "internalType": "address",
          "name": "previousOwner",
          "type": "address"
        },
        {
          "indexed": true,
          "internalType": "address",
          "name": "newOwner",
          "type": "address"
        }
      ],
      "name": "OwnershipTransferred",
      "type": "event"
    },
    {
      "inputs": [
        {
          "internalType": "uint256",
          "name": "index",
          "type": "uint256"
        },
        {
          "internalType": "address",
          "name": "account",
          "type": "address"
        },
        {
          "internalType": "uint256",
          "name": "amount",
          "type": "uint256"
        },
        {
          "internalType": "bytes32[]",
          "name": "merkleProof",
          "type": "bytes32[]"
        }
      ],
      "name": "claim",
      "outputs": [],
      "stateMutability": "nonpayable",
      "type": "function"
    },
    {
      "inputs": [
        {
          "internalType": "uint256",
          "name": "index",
          "type": "uint256"
        },
        {
          "internalType": "address",
          "name": "account",
          "type": "address"
        },
        {
          "internalType": "address",
          "name": "recipient",
          "type": "address"
        },
        {
          "internalType": "uint256",
          "name": "amount",
          "type": "uint256"
        },
        {
          "internalType": "bytes32[]",
          "name": "merkleProof",
          "type": "bytes32[]"
        }
      ],
      "name": "claimTo",
      "outputs": [],
      "stateMutability": "nonpayable",
      "type": "function"
    },
    {
      "inputs": [
        {
          "internalType": "address",
          "name": "_token",
          "type": "address"
        },
        {
          "internalType": "bytes32",
          "name": "_merkleRoot",
          "type": "bytes32"
        }
      ],
      "name": "initialize",
      "outputs": [],
      "stateMutability": "nonpayable",
      "type": "function"
    },
    {
      "inputs": [
        {
          "internalType": "uint256",
          "name": "index",
          "type": "uint256"
        }
      ],
      "name": "isClaimed",
      "outputs": [
        {
          "internalType": "bool",
          "name": "",
          "type": "bool"
        }
      ],
      "stateMutability": "view",
      "type": "function"
    },
    {
      "inputs": [],
      "name": "merkleRoot",
      "outputs": [
        {
          "internalType": "bytes32",
          "name": "",
          "type": "bytes32"
        }
      ],
      "stateMutability": "view",
      "type": "function"
    },
    {
      "inputs": [],
      "name": "owner",
      "outputs": [
        {
          "internalType": "address",
          "name": "",
          "type": "address"
        }
      ],
      "stateMutability": "view",
      "type": "function"
    },
    {
      "inputs": [],
      "name": "renounceOwnership",
      "outputs": [],
      "stateMutability": "nonpayable",
      "type": "function"
    },
    {
      "inputs": [],
      "name": "token",
      "outputs": [
        {
          "internalType": "address",
          "name": "",
          "type": "address"
        }
      ],
      "stateMutability": "view",
      "type": "function"
    },
    {
      "inputs": [
        {
          "internalType": "address",
          "name": "newOwner",
          "type": "address"
        }
      ],
      "name": "transferOwnership",
      "outputs": [],
      "stateMutability": "nonpayable",
      "type": "function"
    }
  ],
  "bytecode": "0x608060405234801561001057600080fd5b50611065806100206000396000f3fe608060405234801561001057600080fd5b50600436106100a35760003560e01c80638da5cb5b11610076578063be13f47c1161005b578063be13f47c14610156578063f2fde38b14610169578063fc0c546a1461017c576100a3565b80638da5cb5b146100f45780639e34070f14610133576100a3565b8063054d5e2a146100a85780632e7ba6ef146100bd5780632eb4a7ab146100d0578063715018a6146100ec575b600080fd5b6100bb6100b6366004610e9e565b61019c565b005b6100bb6100cb366004610f14565b61053e565b6100d960655481565b6040519081526020015b60405180910390f35b6100bb610858565b60335473ffffffffffffffffffffffffffffffffffffffff165b60405173ffffffffffffffffffffffffffffffffffffffff90911681526020016100e3565b610146610141366004610e86565b610948565b60405190151581526020016100e3565b6100bb610164366004610e3d565b61098b565b6100bb610177366004610e1c565b610ae8565b60665461010e9073ffffffffffffffffffffffffffffffffffffffff1681565b60335473ffffffffffffffffffffffffffffffffffffffff163314610222576040517f08c379a000000000000000000000000000000000000000000000000000000000815260206004820181905260248201527f4f776e61626c653a2063616c6c6572206973206e6f7420746865206f776e657260448201526064015b60405180910390fd5b61022b86610948565b156102b8576040517f08c379a000000000000000000000000000000000000000000000000000000000815260206004820152602760248201527f4d65726b6c6544726f703a3a636c61696d2044726f7020616c7265616479206360448201527f6c61696d65642e000000000000000000000000000000000000000000000000006064820152608401610219565b60408051602081018890527fffffffffffffffffffffffffffffffffffffffff000000000000000000000000606088901b169181019190915260548101849052600090607401604051602081830303815290604052805190602001209050610357838380806020026020016040519081016040528093929190818152602001838360200280828437600092019190915250506065549150849050610c9a565b6103bd576040517f08c379a000000000000000000000000000000000000000000000000000000000815260206004820181905260248201527f4d65726b6c6544726f703a3a636c61696d20496e76616c69642070726f6f662e6044820152606401610219565b6103c687610d70565b6066546040517fa9059cbb00000000000000000000000000000000000000000000000000000000815273ffffffffffffffffffffffffffffffffffffffff8781166004830152602482018790529091169063a9059cbb90604401602060405180830381600087803b15801561043a57600080fd5b505af115801561044e573d6000803e3d6000fd5b505050506040513d601f19601f820116820180604052508101906104729190610e66565b6104d8576040517f08c379a000000000000000000000000000000000000000000000000000000000815260206004820152601c60248201527f4d65726b6c6544726f703a205472616e73666572206661696c65642e000000006044820152606401610219565b6040805188815273ffffffffffffffffffffffffffffffffffffffff88811660208301528716818301526060810186905290517fce3bcb6e219596cf26007ffdfaae8953bc3f76e3f36c0a79b23e28020da3222e9181900360800190a150505050505050565b61054785610948565b156105d4576040517f08c379a000000000000000000000000000000000000000000000000000000000815260206004820152602760248201527f4d65726b6c6544726f703a3a636c61696d2044726f7020616c7265616479206360448201527f6c61696d65642e000000000000000000000000000000000000000000000000006064820152608401610219565b60408051602081018790527fffffffffffffffffffffffffffffffffffffffff000000000000000000000000606087901b169181019190915260548101849052600090607401604051602081830303815290604052805190602001209050610673838380806020026020016040519081016040528093929190818152602001838360200280828437600092019190915250506065549150849050610c9a565b6106d9576040517f08c379a000000000000000000000000000000000000000000000000000000000815260206004820181905260248201527f4d65726b6c6544726f703a3a636c61696d20496e76616c69642070726f6f662e6044820152606401610219565b6106e286610d70565b6066546040517fa9059cbb00000000000000000000000000000000000000000000000000000000815273ffffffffffffffffffffffffffffffffffffffff8781166004830152602482018790529091169063a9059cbb90604401602060405180830381600087803b15801561075657600080fd5b505af115801561076a573d6000803e3d6000fd5b505050506040513d601f19601f8201168201806040525081019061078e9190610e66565b6107f4576040517f08c379a000000000000000000000000000000000000000000000000000000000815260206004820152601c60248201527f4d65726b6c6544726f703a205472616e73666572206661696c65642e000000006044820152606401610219565b6040805187815273ffffffffffffffffffffffffffffffffffffffff871660208201819052818301526060810186905290517fce3bcb6e219596cf26007ffdfaae8953bc3f76e3f36c0a79b23e28020da3222e9181900360800190a1505050505050565b60335473ffffffffffffffffffffffffffffffffffffffff1633146108d9576040517f08c379a000000000000000000000000000000000000000000000000000000000815260206004820181905260248201527f4f776e61626c653a2063616c6c6572206973206e6f7420746865206f776e65726044820152606401610219565b60335460405160009173ffffffffffffffffffffffffffffffffffffffff16907f8be0079c531659141344cd1fd0a4f28419497f9722a3daafe3b4186f6b6457e0908390a3603380547fffffffffffffffffffffffff0000000000000000000000000000000000000000169055565b60008061095761010084610f7a565b9050600061096761010085610fec565b60009283526067602052604090922054600190921b9182169091149150505b919050565b600054610100900460ff16806109a4575060005460ff16155b610a30576040517f08c379a000000000000000000000000000000000000000000000000000000000815260206004820152602e60248201527f496e697469616c697a61626c653a20636f6e747261637420697320616c72656160448201527f647920696e697469616c697a65640000000000000000000000000000000000006064820152608401610219565b600054610100900460ff16158015610a6f57600080547fffffffffffffffffffffffffffffffffffffffffffffffffffffffffffff0000166101011790555b606680547fffffffffffffffffffffffff00000000000000000000000000000000000000001673ffffffffffffffffffffffffffffffffffffffff851617905560658290558015610ae357600080547fffffffffffffffffffffffffffffffffffffffffffffffffffffffffffff00ff1690555b505050565b60335473ffffffffffffffffffffffffffffffffffffffff163314610b69576040517f08c379a000000000000000000000000000000000000000000000000000000000815260206004820181905260248201527f4f776e61626c653a2063616c6c6572206973206e6f7420746865206f776e65726044820152606401610219565b73ffffffffffffffffffffffffffffffffffffffff8116610c0c576040517f08c379a000000000000000000000000000000000000000000000000000000000815260206004820152602660248201527f4f776e61626c653a206e6577206f776e657220697320746865207a65726f206160448201527f64647265737300000000000000000000000000000000000000000000000000006064820152608401610219565b60335460405173ffffffffffffffffffffffffffffffffffffffff8084169216907f8be0079c531659141344cd1fd0a4f28419497f9722a3daafe3b4186f6b6457e090600090a3603380547fffffffffffffffffffffffff00000000000000000000000000000000000000001673ffffffffffffffffffffffffffffffffffffffff92909216919091179055565b600081815b8551811015610d65576000868281518110610ce3577f4e487b7100000000000000000000000000000000000000000000000000000000600052603260045260246000fd5b60200260200101519050808311610d25576040805160208101859052908101829052606001604051602081830303815290604052805190602001209250610d52565b60408051602081018390529081018490526060016040516020818303038152906040528051906020012092505b5080610d5d81610f8e565b915050610c9f565b509092149392505050565b6000610d7e61010083610f7a565b90506000610d8e61010084610fec565b6000928352606760205260409092208054600190931b9092179091555050565b803573ffffffffffffffffffffffffffffffffffffffff8116811461098657600080fd5b60008083601f840112610de3578182fd5b50813567ffffffffffffffff811115610dfa578182fd5b6020830191508360208260051b8501011115610e1557600080fd5b9250929050565b600060208284031215610e2d578081fd5b610e3682610dae565b9392505050565b60008060408385031215610e4f578081fd5b610e5883610dae565b946020939093013593505050565b600060208284031215610e77578081fd5b81518015158114610e36578182fd5b600060208284031215610e97578081fd5b5035919050565b60008060008060008060a08789031215610eb6578182fd5b86359550610ec660208801610dae565b9450610ed460408801610dae565b935060608701359250608087013567ffffffffffffffff811115610ef6578283fd5b610f0289828a01610dd2565b979a9699509497509295939492505050565b600080600080600060808688031215610f2b578081fd5b85359450610f3b60208701610dae565b935060408601359250606086013567ffffffffffffffff811115610f5d578182fd5b610f6988828901610dd2565b969995985093965092949392505050565b600082610f8957610f89611000565b500490565b60007fffffffffffffffffffffffffffffffffffffffffffffffffffffffffffffffff821415610fe5577f4e487b710000000000000000000000000000000000000000000000000000000081526011600452602481fd5b5060010190565b600082610ffb57610ffb611000565b500690565b7f4e487b7100000000000000000000000000000000000000000000000000000000600052601260045260246000fdfea26469706673582212208b5ee01b8d0d466711e53ee741343f4b9eb92cc2aec615b08bd73281853c914764736f6c63430008030033",
  "linkReferences": {},
  "deployedLinkReferences": {}
}