{
  "_format": "hh-sol-artifact-1",
  "contractName": "UnipoolVested",
  "sourceName": "contracts/LiquidityMining/UnipoolVested.sol",
  "abi": [
    {
      "inputs": [
        {
          "internalType": "contract DNVesting",
          "name": "_vestingContract",
          "type": "address"
        },
        {
          "internalType": "contract IERC20",
          "name": "_uni",
          "type": "address"
        },
        {
          "internalType": "uint256",
          "name": "_duration",
          "type": "uint256"
        }
      ],
      "stateMutability": "nonpayable",
      "type": "constructor"
    },
    {
      "anonymous": false,
      "inputs": [
        {
          "indexed": true,
          "internalType": "address",
          "name": "previousOwner",
          "type": "address"
        },
        {
          "indexed": true,
          "internalType": "address",
          "name": "newOwner",
          "type": "address"
        }
      ],
      "name": "OwnershipTransferred",
      "type": "event"
    },
    {
      "anonymous": false,
      "inputs": [
        {
          "indexed": false,
          "internalType": "uint256",
          "name": "reward",
          "type": "uint256"
        }
      ],
      "name": "RewardAdded",
      "type": "event"
    },
    {
      "anonymous": false,
      "inputs": [
        {
          "indexed": true,
          "internalType": "address",
          "name": "user",
          "type": "address"
        },
        {
          "indexed": false,
          "internalType": "uint256",
          "name": "reward",
          "type": "uint256"
        }
      ],
      "name": "RewardPaid",
      "type": "event"
    },
    {
      "anonymous": false,
      "inputs": [
        {
          "indexed": true,
          "internalType": "address",
          "name": "user",
          "type": "address"
        },
        {
          "indexed": false,
          "internalType": "uint256",
          "name": "amount",
          "type": "uint256"
        }
      ],
      "name": "Staked",
      "type": "event"
    },
    {
      "anonymous": false,
      "inputs": [
        {
          "indexed": true,
          "internalType": "address",
          "name": "user",
          "type": "address"
        },
        {
          "indexed": false,
          "internalType": "uint256",
          "name": "amount",
          "type": "uint256"
        }
      ],
      "name": "Withdrawn",
      "type": "event"
    },
    {
      "inputs": [
        {
          "internalType": "address",
          "name": "account",
          "type": "address"
        }
      ],
      "name": "balanceOf",
      "outputs": [
        {
          "internalType": "uint256",
          "name": "",
          "type": "uint256"
        }
      ],
      "stateMutability": "view",
      "type": "function"
    },
    {
      "inputs": [],
      "name": "duration",
      "outputs": [
        {
          "internalType": "uint256",
          "name": "",
          "type": "uint256"
        }
      ],
      "stateMutability": "view",
      "type": "function"
    },
    {
      "inputs": [
        {
          "internalType": "address",
          "name": "account",
          "type": "address"
        }
      ],
      "name": "earned",
      "outputs": [
        {
          "internalType": "uint256",
          "name": "",
          "type": "uint256"
        }
      ],
      "stateMutability": "view",
      "type": "function"
    },
    {
      "inputs": [],
      "name": "exit",
      "outputs": [],
      "stateMutability": "nonpayable",
      "type": "function"
    },
    {
      "inputs": [],
      "name": "getReward",
      "outputs": [],
      "stateMutability": "nonpayable",
      "type": "function"
    },
    {
      "inputs": [],
      "name": "lastTimeRewardApplicable",
      "outputs": [
        {
          "internalType": "uint256",
          "name": "",
          "type": "uint256"
        }
      ],
      "stateMutability": "view",
      "type": "function"
    },
    {
      "inputs": [],
      "name": "lastUpdateTime",
      "outputs": [
        {
          "internalType": "uint256",
          "name": "",
          "type": "uint256"
        }
      ],
      "stateMutability": "view",
      "type": "function"
    },
    {
      "inputs": [
        {
          "internalType": "uint256",
          "name": "reward",
          "type": "uint256"
        }
      ],
      "name": "notifyRewardAmount",
      "outputs": [],
      "stateMutability": "nonpayable",
      "type": "function"
    },
    {
      "inputs": [],
      "name": "owner",
      "outputs": [
        {
          "internalType": "address",
          "name": "",
          "type": "address"
        }
      ],
      "stateMutability": "view",
      "type": "function"
    },
    {
      "inputs": [],
      "name": "periodFinish",
      "outputs": [
        {
          "internalType": "uint256",
          "name": "",
          "type": "uint256"
        }
      ],
      "stateMutability": "view",
      "type": "function"
    },
    {
      "inputs": [],
      "name": "renounceOwnership",
      "outputs": [],
      "stateMutability": "nonpayable",
      "type": "function"
    },
    {
      "inputs": [],
      "name": "rewardDistribution",
      "outputs": [
        {
          "internalType": "address",
          "name": "",
          "type": "address"
        }
      ],
      "stateMutability": "view",
      "type": "function"
    },
    {
      "inputs": [],
      "name": "rewardPerToken",
      "outputs": [
        {
          "internalType": "uint256",
          "name": "",
          "type": "uint256"
        }
      ],
      "stateMutability": "view",
      "type": "function"
    },
    {
      "inputs": [],
      "name": "rewardPerTokenStored",
      "outputs": [
        {
          "internalType": "uint256",
          "name": "",
          "type": "uint256"
        }
      ],
      "stateMutability": "view",
      "type": "function"
    },
    {
      "inputs": [],
      "name": "rewardRate",
      "outputs": [
        {
          "internalType": "uint256",
          "name": "",
          "type": "uint256"
        }
      ],
      "stateMutability": "view",
      "type": "function"
    },
    {
      "inputs": [
        {
          "internalType": "address",
          "name": "",
          "type": "address"
        }
      ],
      "name": "rewards",
      "outputs": [
        {
          "internalType": "uint256",
          "name": "",
          "type": "uint256"
        }
      ],
      "stateMutability": "view",
      "type": "function"
    },
    {
      "inputs": [
        {
          "internalType": "address",
          "name": "_rewardDistribution",
          "type": "address"
        }
      ],
      "name": "setRewardDistribution",
      "outputs": [],
      "stateMutability": "nonpayable",
      "type": "function"
    },
    {
      "inputs": [
        {
          "internalType": "uint256",
          "name": "amount",
          "type": "uint256"
        }
      ],
      "name": "stake",
      "outputs": [],
      "stateMutability": "nonpayable",
      "type": "function"
    },
    {
      "inputs": [
        {
          "internalType": "uint256",
          "name": "amount",
          "type": "uint256"
        },
        {
          "internalType": "bytes",
          "name": "permit",
          "type": "bytes"
        }
      ],
      "name": "stakeWithPermit",
      "outputs": [],
      "stateMutability": "nonpayable",
      "type": "function"
    },
    {
      "inputs": [],
      "name": "totalSupply",
      "outputs": [
        {
          "internalType": "uint256",
          "name": "",
          "type": "uint256"
        }
      ],
      "stateMutability": "view",
      "type": "function"
    },
    {
      "inputs": [
        {
          "internalType": "address",
          "name": "newOwner",
          "type": "address"
        }
      ],
      "name": "transferOwnership",
      "outputs": [],
      "stateMutability": "nonpayable",
      "type": "function"
    },
    {
      "inputs": [],
      "name": "uni",
      "outputs": [
        {
          "internalType": "contract IERC20",
          "name": "",
          "type": "address"
        }
      ],
      "stateMutability": "view",
      "type": "function"
    },
    {
      "inputs": [
        {
          "internalType": "address",
          "name": "",
          "type": "address"
        }
      ],
      "name": "userRewardPerTokenPaid",
      "outputs": [
        {
          "internalType": "uint256",
          "name": "",
          "type": "uint256"
        }
      ],
      "stateMutability": "view",
      "type": "function"
    },
    {
      "inputs": [],
      "name": "vestingContract",
      "outputs": [
        {
          "internalType": "contract DNVesting",
          "name": "",
          "type": "address"
        }
      ],
      "stateMutability": "view",
      "type": "function"
    },
    {
      "inputs": [
        {
          "internalType": "uint256",
          "name": "amount",
          "type": "uint256"
        }
      ],
      "name": "withdraw",
      "outputs": [],
      "stateMutability": "nonpayable",
      "type": "function"
    }
  ],
  "bytecode": "0x608060405234801561001057600080fd5b50604051611e30380380611e308339818101604052606081101561003357600080fd5b5080516020820151604090920151600080546001600160a01b0319166001600160a01b0385161781559192916100676100df565b600380546001600160a01b0319166001600160a01b038316908117909155604051919250906000907f8be0079c531659141344cd1fd0a4f28419497f9722a3daafe3b4186f6b6457e0908290a350600480546001600160a01b0319166001600160a01b039490941693909317909255506005556100e3565b3390565b611d3e806100f26000396000f3fe608060405234801561001057600080fd5b50600436106101a25760003560e01c806371cc29e5116100ee578063c8f33c9111610097578063e9fad8ee11610071578063e9fad8ee14610411578063ebe2b12b14610419578063edc9af9514610421578063f2fde38b14610429576101a2565b8063c8f33c91146103f9578063cd3daf9d14610401578063df136d6514610409576101a2565b80638b876347116100c85780638b876347146103a15780638da5cb5b146103d4578063a694fc3a146103dc576101a2565b806371cc29e51461031a5780637b0a47ee1461039157806380faa57d14610399576101a2565b80632e1a7d4d116101505780635e6f60451161012a5780635e6f6045146102d757806370a08231146102df578063715018a614610312576101a2565b80632e1a7d4d146102955780633c6b16ab146102b25780633d18b912146102cf576101a2565b80630fb5a6b4116101815780630fb5a6b414610254578063101114cf1461025c57806318160ddd1461028d576101a2565b80628cc262146101a75780630700037d146101ec5780630d68b7611461021f575b600080fd5b6101da600480360360208110156101bd57600080fd5b503573ffffffffffffffffffffffffffffffffffffffff1661045c565b60408051918252519081900360200190f35b6101da6004803603602081101561020257600080fd5b503573ffffffffffffffffffffffffffffffffffffffff166104d7565b6102526004803603602081101561023557600080fd5b503573ffffffffffffffffffffffffffffffffffffffff166104e9565b005b6101da6105d8565b6102646105de565b6040805173ffffffffffffffffffffffffffffffffffffffff9092168252519081900360200190f35b6101da6105fa565b610252600480360360208110156102ab57600080fd5b5035610601565b610252600480360360208110156102c857600080fd5b5035610728565b6102526108da565b610264610a3e565b6101da600480360360208110156102f557600080fd5b503573ffffffffffffffffffffffffffffffffffffffff16610a5a565b610252610a82565b6102526004803603604081101561033057600080fd5b8135919081019060408101602082013564010000000081111561035257600080fd5b82018360208201111561036457600080fd5b8035906020019184600183028401116401000000008311171561038657600080fd5b509092509050610b99565b6101da610ccd565b6101da610cd3565b6101da600480360360208110156103b757600080fd5b503573ffffffffffffffffffffffffffffffffffffffff16610ce6565b610264610cf8565b610252600480360360208110156103f257600080fd5b5035610d14565b6101da610e3b565b6101da610e41565b6101da610e8f565b610252610e95565b6101da610eb0565b610264610eb6565b6102526004803603602081101561043f57600080fd5b503573ffffffffffffffffffffffffffffffffffffffff16610ed2565b73ffffffffffffffffffffffffffffffffffffffff81166000908152600c6020908152604080832054600b9092528220546104d191906104cb90670de0b6b3a7640000906104c5906104b6906104b0610e41565b90611074565b6104bf88610a5a565b906110eb565b90611165565b906111e6565b92915050565b600c6020526000908152604090205481565b6104f161125a565b73ffffffffffffffffffffffffffffffffffffffff1661050f610cf8565b73ffffffffffffffffffffffffffffffffffffffff161461059157604080517f08c379a000000000000000000000000000000000000000000000000000000000815260206004820181905260248201527f4f776e61626c653a2063616c6c6572206973206e6f7420746865206f776e6572604482015290519081900360640190fd5b600680547fffffffffffffffffffffffff00000000000000000000000000000000000000001673ffffffffffffffffffffffffffffffffffffffff92909216919091179055565b60055481565b60065473ffffffffffffffffffffffffffffffffffffffff1681565b6001545b90565b3361060a610e41565b600a55610615610cd3565b60095573ffffffffffffffffffffffffffffffffffffffff8116156106765761063d8161045c565b73ffffffffffffffffffffffffffffffffffffffff82166000908152600c6020908152604080832093909355600a54600b909152919020555b600082116106e557604080517f08c379a000000000000000000000000000000000000000000000000000000000815260206004820152601160248201527f43616e6e6f742077697468647261772030000000000000000000000000000000604482015290519081900360640190fd5b6106ee8261125e565b60408051838152905133917f7084f5476618d8e60b11ef0d7d3f06914655adb8793e28ff7f018d4c76d505d5919081900360200190a25050565b60065473ffffffffffffffffffffffffffffffffffffffff1661074961125a565b73ffffffffffffffffffffffffffffffffffffffff16146107b5576040517f08c379a0000000000000000000000000000000000000000000000000000000008152600401808060200182810382526021815260200180611c6c6021913960400191505060405180910390fd5b60006107bf610e41565b600a556107ca610cd3565b60095573ffffffffffffffffffffffffffffffffffffffff81161561082b576107f28161045c565b73ffffffffffffffffffffffffffffffffffffffff82166000908152600c6020908152604080832093909355600a54600b909152919020555b600754421061084a57600554610842908390611165565b60085561088d565b60075460009061085a9042611074565b90506000610873600854836110eb90919063ffffffff16565b600554909150610887906104c586846111e6565b60085550505b4260098190556005546108a091906111e6565b6007556040805183815290517fde88a922e0d3b88b24e9623efeb464919c6bf9f66857a65e2bfcf2ce87a9433d9181900360200190a15050565b336108e3610e41565b600a556108ee610cd3565b60095573ffffffffffffffffffffffffffffffffffffffff81161561094f576109168161045c565b73ffffffffffffffffffffffffffffffffffffffff82166000908152600c6020908152604080832093909355600a54600b909152919020555b600061095a3361045c565b90508015610a3a57336000818152600c60205260408082208290556004805482517f6370920e0000000000000000000000000000000000000000000000000000000081529182019490945260248101859052905173ffffffffffffffffffffffffffffffffffffffff90931692636370920e9260448084019391929182900301818387803b1580156109eb57600080fd5b505af11580156109ff573d6000803e3d6000fd5b50506040805184815290513393507fe2403640ba68fed3a2f88b7557551d1993f84b99bb10ff833f0cf8db0c5e048692509081900360200190a25b5050565b60045473ffffffffffffffffffffffffffffffffffffffff1681565b73ffffffffffffffffffffffffffffffffffffffff1660009081526002602052604090205490565b610a8a61125a565b73ffffffffffffffffffffffffffffffffffffffff16610aa8610cf8565b73ffffffffffffffffffffffffffffffffffffffff1614610b2a57604080517f08c379a000000000000000000000000000000000000000000000000000000000815260206004820181905260248201527f4f776e61626c653a2063616c6c6572206973206e6f7420746865206f776e6572604482015290519081900360640190fd5b60035460405160009173ffffffffffffffffffffffffffffffffffffffff16907f8be0079c531659141344cd1fd0a4f28419497f9722a3daafe3b4186f6b6457e0908390a3600380547fffffffffffffffffffffffff0000000000000000000000000000000000000000169055565b33610ba2610e41565b600a55610bad610cd3565b60095573ffffffffffffffffffffffffffffffffffffffff811615610c0e57610bd58161045c565b73ffffffffffffffffffffffffffffffffffffffff82166000908152600c6020908152604080832093909355600a54600b909152919020555b60008411610c7d57604080517f08c379a000000000000000000000000000000000000000000000000000000000815260206004820152600e60248201527f43616e6e6f74207374616b652030000000000000000000000000000000000000604482015290519081900360640190fd5b610c888484846112c3565b610c918461166e565b60408051858152905133917f9e71bc8eea02a63969f509818f2dafb9254532904319f9dbda79b67bd34a5f3d919081900360200190a250505050565b60085481565b6000610ce1426007546116d1565b905090565b600b6020526000908152604090205481565b60035473ffffffffffffffffffffffffffffffffffffffff1690565b33610d1d610e41565b600a55610d28610cd3565b60095573ffffffffffffffffffffffffffffffffffffffff811615610d8957610d508161045c565b73ffffffffffffffffffffffffffffffffffffffff82166000908152600c6020908152604080832093909355600a54600b909152919020555b60008211610df857604080517f08c379a000000000000000000000000000000000000000000000000000000000815260206004820152600e60248201527f43616e6e6f74207374616b652030000000000000000000000000000000000000604482015290519081900360640190fd5b610e018261166e565b60408051838152905133917f9e71bc8eea02a63969f509818f2dafb9254532904319f9dbda79b67bd34a5f3d919081900360200190a25050565b60095481565b6000610e4b6105fa565b610e585750600a546105fe565b610ce1610e86610e666105fa565b6104c5670de0b6b3a76400006104bf6008546104bf6009546104b0610cd3565b600a54906111e6565b600a5481565b610ea6610ea133610a5a565b610601565b610eae6108da565b565b60075481565b60005473ffffffffffffffffffffffffffffffffffffffff1681565b610eda61125a565b73ffffffffffffffffffffffffffffffffffffffff16610ef8610cf8565b73ffffffffffffffffffffffffffffffffffffffff1614610f7a57604080517f08c379a000000000000000000000000000000000000000000000000000000000815260206004820181905260248201527f4f776e61626c653a2063616c6c6572206973206e6f7420746865206f776e6572604482015290519081900360640190fd5b73ffffffffffffffffffffffffffffffffffffffff8116610fe6576040517f08c379a0000000000000000000000000000000000000000000000000000000008152600401808060200182810382526026815260200180611bab6026913960400191505060405180910390fd5b60035460405173ffffffffffffffffffffffffffffffffffffffff8084169216907f8be0079c531659141344cd1fd0a4f28419497f9722a3daafe3b4186f6b6457e090600090a3600380547fffffffffffffffffffffffff00000000000000000000000000000000000000001673ffffffffffffffffffffffffffffffffffffffff92909216919091179055565b6000828211156110e557604080517f08c379a000000000000000000000000000000000000000000000000000000000815260206004820152601e60248201527f536166654d6174683a207375627472616374696f6e206f766572666c6f770000604482015290519081900360640190fd5b50900390565b6000826110fa575060006104d1565b8282028284828161110757fe5b041461115e576040517f08c379a0000000000000000000000000000000000000000000000000000000008152600401808060200182810382526021815260200180611bf76021913960400191505060405180910390fd5b9392505050565b60008082116111d557604080517f08c379a000000000000000000000000000000000000000000000000000000000815260206004820152601a60248201527f536166654d6174683a206469766973696f6e206279207a65726f000000000000604482015290519081900360640190fd5b8183816111de57fe5b049392505050565b60008282018381101561115e57604080517f08c379a000000000000000000000000000000000000000000000000000000000815260206004820152601b60248201527f536166654d6174683a206164646974696f6e206f766572666c6f770000000000604482015290519081900360640190fd5b3390565b60015461126b9082611074565b600155336000908152600260205260409020546112889082611074565b3360008181526002602052604081209290925590546112c09173ffffffffffffffffffffffffffffffffffffffff90911690836116e7565b50565b6000828260208110156112d557600080fd5b50357fffffffff000000000000000000000000000000000000000000000000000000001690507fd505accf000000000000000000000000000000000000000000000000000000008114611373576040517f08c379a0000000000000000000000000000000000000000000000000000000008152600401808060200182810382526026815260200180611c186026913960400191505060405180910390fd5b6000808080808080611388896004818d611b82565b60e081101561139657600080fd5b5073ffffffffffffffffffffffffffffffffffffffff8135811698506020820135169650604081013595506060810135945060ff608082013516935060a0810135925060c001359050338714611437576040517f08c379a000000000000000000000000000000000000000000000000000000000815260040180806020018281038252602e815260200180611c3e602e913960400191505060405180910390fd5b73ffffffffffffffffffffffffffffffffffffffff861630146114a5576040517f08c379a000000000000000000000000000000000000000000000000000000000815260040180806020018281038252602e815260200180611cb1602e913960400191505060405180910390fd5b8a85146114fd576040517f08c379a0000000000000000000000000000000000000000000000000000000008152600401808060200182810382526024815260200180611c8d6024913960400191505060405180910390fd5b6000546040805173ffffffffffffffffffffffffffffffffffffffff8a811660248301528981166044830152606482018990526084820188905260ff871660a483015260c4820186905260e48083018690528351808403909101815261010490920183526020820180517bffffffffffffffffffffffffffffffffffffffffffffffffffffffff167fd505accf00000000000000000000000000000000000000000000000000000000178152925182519190941693919282918083835b602083106115f757805182527fffffffffffffffffffffffffffffffffffffffffffffffffffffffffffffffe090920191602091820191016115ba565b6001836020036101000a0380198251168184511680821785525050505050509050019150506000604051808303816000865af19150503d8060008114611659576040519150601f19603f3d011682016040523d82523d6000602084013e61165e565b606091505b5050505050505050505050505050565b60015461167b90826111e6565b6001553360009081526002602052604090205461169890826111e6565b3360008181526002602052604081209290925590546112c09173ffffffffffffffffffffffffffffffffffffffff909116903084611779565b60008183106116e0578161115e565b5090919050565b6040805173ffffffffffffffffffffffffffffffffffffffff8416602482015260448082018490528251808303909101815260649091019091526020810180517bffffffffffffffffffffffffffffffffffffffffffffffffffffffff167fa9059cbb00000000000000000000000000000000000000000000000000000000179052611774908490611814565b505050565b6040805173ffffffffffffffffffffffffffffffffffffffff80861660248301528416604482015260648082018490528251808303909101815260849091019091526020810180517bffffffffffffffffffffffffffffffffffffffffffffffffffffffff167f23b872dd0000000000000000000000000000000000000000000000000000000017905261180e908590611814565b50505050565b6060611876826040518060400160405280602081526020017f5361666545524332303a206c6f772d6c6576656c2063616c6c206661696c65648152508573ffffffffffffffffffffffffffffffffffffffff166118ec9092919063ffffffff16565b8051909150156117745780806020019051602081101561189557600080fd5b5051611774576040517f08c379a000000000000000000000000000000000000000000000000000000000815260040180806020018281038252602a815260200180611cdf602a913960400191505060405180910390fd5b60606118fb8484600085611903565b949350505050565b60608247101561195e576040517f08c379a0000000000000000000000000000000000000000000000000000000008152600401808060200182810382526026815260200180611bd16026913960400191505060405180910390fd5b61196785611abe565b6119d257604080517f08c379a000000000000000000000000000000000000000000000000000000000815260206004820152601d60248201527f416464726573733a2063616c6c20746f206e6f6e2d636f6e7472616374000000604482015290519081900360640190fd5b600060608673ffffffffffffffffffffffffffffffffffffffff1685876040518082805190602001908083835b60208310611a3c57805182527fffffffffffffffffffffffffffffffffffffffffffffffffffffffffffffffe090920191602091820191016119ff565b6001836020036101000a03801982511681845116808217855250505050505090500191505060006040518083038185875af1925050503d8060008114611a9e576040519150601f19603f3d011682016040523d82523d6000602084013e611aa3565b606091505b5091509150611ab3828286611ac4565b979650505050505050565b3b151590565b60608315611ad357508161115e565b825115611ae35782518084602001fd5b816040517f08c379a00000000000000000000000000000000000000000000000000000000081526004018080602001828103825283818151815260200191508051906020019080838360005b83811015611b47578181015183820152602001611b2f565b50505050905090810190601f168015611b745780820380516001836020036101000a031916815260200191505b509250505060405180910390fd5b60008085851115611b91578182fd5b83861115611b9d578182fd5b505082019391909203915056fe4f776e61626c653a206e6577206f776e657220697320746865207a65726f2061646472657373416464726573733a20696e73756666696369656e742062616c616e636520666f722063616c6c536166654d6174683a206d756c7469706c69636174696f6e206f766572666c6f77556e69706f6f6c5665737465643a3a5f7065726d69743a204e4f545f56414c49445f43414c4c556e69706f6f6c5665737465643a3a5f7065726d69743a204f574e45525f4e4f545f455155414c5f53454e44455243616c6c6572206973206e6f742072657761726420646973747269627574696f6e556e69706f6f6c5665737465643a3a5f7065726d69743a2057524f4e475f414d4f554e54556e69706f6f6c5665737465643a3a5f7065726d69743a205350454e4445525f4e4f545f455155414c5f544849535361666545524332303a204552433230206f7065726174696f6e20646964206e6f742073756363656564a2646970667358221220699c88fc8a5708ac852d03f0ce19481b87b1e897879ba5e9ce0ba182da91022d64736f6c63430007030033",
  "linkReferences": {},
  "deployedLinkReferences": {}
}